:100000000C9454000C9471000C9471000C947100C9
:100010000C9471000C9471000C9471000C9471009C
:100020000C9471000C9471000C9471000C9471008C
:100030000C9471000C9471000C94EA040C947100FF
:100040000C9471000C9471000C9471000C9471006C
:100050000C9471000C9471000C9471000C9471005C
:100060000C9471000C947100001F000000001F0030
:10007000001F101010101F00001F181818181F0064
:10008000001F1C1C1C1C1F00001F1E1E1E1E1F000C
:10009000001F1F1F1F1F1F0003070F1F0F07030055
:1000A000181C1E1F1E1C180011241FBECFEFD8E005
:1000B000DEBFCDBF11E0A0E0B1E0E0E0FCE002C0B7
:1000C00005900D92A437B107D9F721E0A4E7B1E07C
:1000D00001C01D92A138B207E1F70E9473020C948F
:1000E000FE050C94000065B1982F9074492F50E0E4
:1000F00055954795559547955595479555954795E8
:10010000982F9078292F30E0022E232F000C221FE9
:10011000330B000C221F331F962F997F492B242B62
:1001200025B968B1982F9071492F50E055954795A2
:100130005595479555954795982F9072292F30E002
:10014000359527953595279535952795962F997F40
:10015000492B242B28B99BB192609BB99BB191602C
:100160009BB925ED2A95F1F700009BB19E7F9BB9C5
:100170009BB19D7F9BB995ED9A95F1F7000065B114
:1001800020E1829FC0011124AC0140745527559590
:1001900047955595479555954795559547959C0194
:1001A00020783327022E232F000C221F330B000C44
:1001B000221F331F362F397F432B242B25B948B1FB
:1001C0009C012071332735952795359527953595D1
:1001D00027958072992795958795959587959595FB
:1001E0008795942F997F292B822B88B98BB18260B8
:1001F0008BB98BB181608BB985ED8A95F1F70000E1
:100200008BB18E7F8BB98BB18D7F8BB995ED9A9524
:10021000F1F70000089565B1982F9074492F50E0D0
:1002200055954795559547955595479555954795B6
:10023000982F9078292F30E0022E232F000C221FB8
:10024000330B000C221F331F962F997F492B242B31
:1002500025B968B1982F9071492F50E05595479571
:100260005595479555954795982F9072292F30E0D1
:10027000359527953595279535952795962F997F0F
:10028000492B242B28B99BB191609BB9EFE9FFE082
:100290003197F1F700C000009BB19E7F9BB9EFE959
:1002A000FFE03197F1F700C0000065B1F0E18F9FEA
:1002B000C0011124AC0140745527559547955595BB
:1002C000479555954795559547959C012078332737
:1002D000022E232F000C221F330B000C221F331F72
:1002E000362F397F432B242B25B948B19C0120712F
:1002F0003327359527953595279535952795807220
:100300009927959587959595879595958795942F98
:10031000997F292B822B88B98BB181608BB98FE9AA
:100320009FE00197F1F700C000008BB18E7F8BB981
:10033000EFE9FFE03197F1F700C00000089581E098
:100340000E940B0108950F931F93CF93DF930097A3
:1003500069F0D62F8C01C0E007C0F801EC0FF11D49
:1003600080810E947300CF5FCD17B8F3DF91CF91EA
:100370001F910F910895623031F0633031F0613098
:1003800029F4805C03C08C5E01C08C5A80680E9496
:100390000B010895EF92FF920F931F93CF93DF937A
:1003A0007C01862F90E0880F991F880F991F880F76
:1003B000991F8064C0E0D0E00DC0F701EC0FFD1F75
:1003C000149101E0080F0E940B01812F0E9473001D
:1003D0002196802FC830D10580F3DF91CF911F91F6
:1003E0000F91FF90EF900895CF93DF938FE59AEEF2
:1003F0000197F1F700C0000085B1897F85B988B108
:10040000897F88B91BB887B1866087B984B1866057
:1004100084B984B1866084B987B1866087B98AB1AE
:1004200083608AB985B1897F85B988B1866088B9CA
:100430008BB181608BB98FE99FE00197F1F700C024
:1004400000008BB18E7F8BB98FE99FE00197F1F7A8
:1004500000C0000085B1897F85B988B1866088B900
:100460008BB181608BB98FE99FE00197F1F700C0F4
:1004700000008BB18E7F8BB98FE99FE00197F1F778
:1004800000C0000085B1897F85B988B1897F84600B
:1004900088B98BB181608BB98FE99FE00197F1F743
:1004A00000C000008BB18E7F8BB98FE99FE0019770
:1004B000F1F700C0000088E20E940B018CE00E946E
:1004C0000B0160E0C0E00AC0D1E0D60F8C2F90E0B5
:1004D00088599F4F0E94CA01C85F6D2FC034A0F396
:1004E000DF91CF9108952FEF80E792E02150804077
:1004F0009040E1F700C000000E94F4010E949F01BB
:100500000E9449040E9489020E94D2040E94CE02E5
:10051000FDCF10927F0110927E0108951092770115
:1005200020E011C0E22FF0E0EC58FE4F9081809166
:100530007701880F382F330F330F830F890F8053C4
:10054000809377012F5F223068F3809177018436A2
:1005500010F080E0089581E0089580E891E00E9425
:10056000B2048823D1F08091800190ED980F9A30E9
:1005700050F4E091780191E09E0F90937801F0E0C3
:10058000EC58FE4F808380917801823029F41092DC
:1005900078010E948E02089580E00895CF93DF9342
:1005A000CDB7DEB729970FB6F894DEBF0FBECDBF2B
:1005B00080917E018F5F80937E0190917F019130C9
:1005C00039F138F0923009F44FC0933009F4B6C0D5
:1005D000DFC010927E0160E080E00E94BB016AE013
:1005E00085E091E00E94A30161E080E00E94BB01F0
:1005F00060E180E191E00E94A30180E891E00E9427
:10060000B204882309F4C4C081E080937F01C0C094
:1006100080918001813499F40E94460490E00E9408
:100620009F050E949A0564E670E00E94170580937A
:1006300076010E94D10382E080937F01A9C060E02F
:1006400080E00E94BB016AE081E291E00E94A30188
:100650002FEF83ED90E3215080409040E1F700C000
:10066000000010927F0194C0813009F091C060E0D9
:1006700080E00E94BB016AE08CE291E00E94A3014D
:1006800061E080E00E94BB0160E187E391E00E94AD
:10069000A3010E94AD02813009F049C09091770119
:1006A00080917601981304C083E080937F0170C02D
:1006B0008917E8F461E08CE00E94BB0162E084E706
:1006C00091E00E94A30161E08EE00E94BB018CE3F7
:1006D0000E9473002FEF83ED90E321508040904003
:1006E000E1F700C0000082E080937F0151C09817BD
:1006F00008F04EC061E08CE00E94BB0162E084E73C
:1007000091E00E94A30161E08EE00E94BB018EE3B4
:100710000E9473002FEF83ED90E3215080409040C2
:10072000E1F700C0000082E080937F0131C080913A
:100730008001843469F510927F012AC060E080E076
:100740000E94BB016AE088E491E00E94A301CE010F
:1007500001960E94F20361E089E00E94BB0166E01D
:1007600083E591E00E94A30161E080E00E94BB016B
:1007700069E0CE0101960E94A3012FEF8BE792E979
:10078000215080409040E1F700C0000010927F01AE
:1007900029960FB6F894DEBF0FBECDBFDF91CF9183
:1007A000089510927B0110927A01109279010895B8
:1007B00080917B018F5F80937B01843639F41092A6
:1007C0007B0180917A018F5F80937A0180917A0119
:1007D0008C3339F410927A01809179018F5F809384
:1007E00079010895FC01909179012DEC929F812D62
:1007F000112486958695869530E3380F3083880FCF
:10080000382F330F330F830F981B905D91834AE38A
:10081000428390917A01929F812D1124869586952D
:10082000869530E3380F3383880F382F330F330F1B
:10083000830F981B905D9483458330917B0199E2EF
:10084000399F912D112492959F7080E3890F8683A3
:10085000432F50E0BA01A4E69A9F60197109112450
:10086000CB016AE070E00E941705605D6783329FEC
:10087000212D1124269526952695220F822F880F4B
:10088000880F280F321B305D3087089580917B01DF
:10089000089584B1867E84B98AB183748AB985B19A
:1008A000896185B98BB180688BB98BB18C638BB949
:1008B000089530E052C084B1867E84B98AB18374D1
:1008C0008AB92AB1E32FF0E0DF01A55ABE4F81E0DB
:1008D00090E00C9002C0880F991F0A94E2F7922FC3
:1008E000982B9AB99BB1809589238BB920E01AC0C7
:1008F00083B1422F50E0DA01A15ABE4F90E00C9034
:1009000002C0959587950A94E2F780FD0AC0440FCE
:10091000551F440F551F4D595E4FE40FF51F808141
:1009200008952F5F233020F34F9904C0ED59FE4FF7
:10093000848508952AB1E55AFE4F81E090E0008059
:1009400002C0880F991F0A94E2F7982F909592237E
:100950009AB99BB1892B8BB93F5F343008F4ABCF88
:1009600080E00895CF93DF93EC010E9459048F3FFC
:1009700031F480937C018093040180E010C0909159
:100980007C01891309C090910401891729F088839B
:100990008093040181E003C080937C0180E0DF91BB
:1009A000CF910895EEE6F0E080818D7F808384B55D
:1009B000826084BD84B5806484BD85B5816085BD59
:1009C00085B5826085BD16BC89EF87BD82E08083D6
:1009D000789408951F920F920FB60F9211242F93BF
:1009E0003F934F935F936F937F938F939F93AF93B7
:1009F000BF93EF93FF9380917D018F5F80937D0183
:100A00008A3021F410927D010E94D803FF91EF916A
:100A1000BF91AF919F918F917F916F915F914F9116
:100A20003F912F910F900FBE0F901F90189597FB3D
:100A3000072E16F4009407D077FD09D00E943A05DE
:100A400007FC05D03EF4909581959F4F08957095D1
:100A500061957F4F0895A29FB001B39FC001A39FEE
:100A6000700D811D1124911DB29F700D811D1124E7
:100A7000911D0895AA1BBB1B51E107C0AA1FBB1FF4
:100A8000A617B70710F0A61BB70B881F991F5A951A
:100A9000A9F780959095BC01CD0108958F929F9202
:100AA000AF92BF92CF92DF92EF92FF92CF93DF93FC
:100AB000EC01688179818A819B81611571058105CD
:100AC000910521F464E279ED8BE597E02DE133EFB8
:100AD00041E050E00E94AA0549015A019B01AC0186
:100AE000A7EAB1E40E94C9056B017C01ACEEB4EF4A
:100AF000A50194010E94D705DC01CB018C0D9D1D41
:100B0000AE1DBF1DB7FF03C00197A109B048888380
:100B10009983AA83BB839F77DF91CF91FF90EF905A
:100B2000DF90CF90BF90AF909F908F9008950E94DC
:100B30004E05089580E091E00E944E050895A0E0E2
:100B4000B0E08093000190930101A0930201B09363
:100B500003010895052E97FB1EF400940E94C10521
:100B600057FD07D00E94DC0507FC03D04EF40C941F
:100B7000C10550954095309521953F4F4F4F5F4FA0
:100B8000089590958095709561957F4F8F4F9F4FF9
:100B900008950E942B05A59F900DB49F900DA49FD2
:100BA000800D911D11240895B7FF0C94C9050E9472
:100BB000C905821B930B0895A1E21A2EAA1BBB1B29
:100BC000FD010DC0AA1FBB1FEE1FFF1FA217B30719
:100BD000E407F50720F0A21BB30BE40BF50B661F2F
:100BE000771F881F991F1A9469F7609570958095F3
:100BF00090959B01AC01BD01CF010895F894FFCF02
:100C000001000000FF4249454E56454E49444F0001
:100C1000502F204A554741522050554C53452041B2
:100C2000002020204572726F7220200020204A553B
:100C300047414E444F2000494E4752455345204EB0
:100C4000554D202020202000202047414E41444F78
:100C50005220002020202020202000030504020430
:100C600003000731323341343536423738394330A7
:040C70002A234400EF
:00000001FF
